:100000001CC200000C94E7310C9418320C94493255
:100010000C947A320C94AB320C94DC320C940D3389
:100020000C943E3337C2000035C2000033C20000DA
:1000300070C700002FC200002DC200002BC20000BC
:1000400029C2000027C2000025C2000023C2000010
:1000500021C200001FC200001DC200000C946F33BB
:1000600019C200000C94D8350C94003713C200005C
:1000700011C200000FC200000DC200000BC2000040
:1000800009C2000007C2000005C2000003C2000050
:100090000C9411360C943F37FDC100000C94AA2F2C
:1000A000F9C10000F7C10000F5C10000F3C1000074
:1000B000F1C10000EFC10000EDC10000EBC1000084
:1000C000E9C10000E7C10000E5C100000C944A3618
:1000D0000C947E37DFC100000C9483360C94BD373E
:1000E000D9C1000041540D0000415445300D0000BD
:1000F00041542B43475245473F0D000041542B4983
:1001000046433D312C310D000041542B434D4746B1
:100110003D310D000041542B434C49503D310D0001
:100120000041542B434F4C503D310D000041542BA6
:1001300043474154543D310D000041542B51494631
:1001400047434E543D300D000041542B5149435319
:1001500047503D312C226570632E746D6F62696C5F
:10016000652E636F6D222C22222C22220D0000416D
:10017000542B51494D55583D300D000041542B51E1
:10018000494D4F44453D310D000041542B51494EDE
:1001900044493D310D000041542B514952454741DE
:1001A00050500D000041542B51494143540D000063
:1001B000E400F000FC000901150121012D013A01C4
:1001C00049016F017C018A019701A501E9000D0A2F
:1001D0004F4B0D5C6E0000412074657374206D659B
:1001E00073736167652E0000475052532052656754
:1001F000697374726174696F6E204572726F722ECA
:100200000000D701E8017C3C3E5E2B3D3F2F5B5D4B
:100210003B2C2A225C0000002100240027002A0039
:100220002D003000330001010000040107010A0124
:1002300000002200250028002B002E003100340091
:1002400002010000050108010B010000200023004D
:10025000260029002C002F003200000100000301BD
:100260000601090105050505070508080808020239
:1002700002020A0A08080404040401010101010140
:1002800001010303030303030303040707070C0C23
:100290000C0C0C0C0C0C02020202060606060606EA
:1002A00006060B0B0B0B0B0B0B0B0102102020088F
:1002B00008102040102040800201020108040201C1
:1002C0000102040810204080804020100804020130
:1002D0008004020180402010080402010804020189
:1002E0000102040810204080010204081020408010
:1002F0000000090A02080B0C0D07060304010000A8
:1003000000000000000000000000000000000000ED
:1003100000000000000000000000000011100F00AD
:1003200000000000000000000000000000000000CD
:1003300000000000000000407A10F35A00A0724E46
:1003400018090010A5D4E80000E87648170000E47A
:100350000B54020000CA9A3B000000E1F5050000C2
:1003600080969800000040420F000000A086010027
:100370000000102700000000E803000000006400F7
:10038000000000000A000000000001000000000062
:100390002C76D888DC674F0823DFC1DFAE59E1B186
:1003A000B796E5E3E453C63AE651997696E8E6C295
:1003B0008426EB898C9B62ED407C6FFCEFBC9C9F9C
:1003C00040F2BAA56FA5F490055A2AF75C936B6CBE
:1003D000F9676DC11BFCE0E40D47FEF520E6B500B2
:1003E000D0ED902E0300943577050080841E080020
:1003F00000204E0A000000C80C333333330F986ED0
:1004000012831141EF8D2114893BE65516CFFEE68C
:10041000DB18D1844B381BF77C1D901DA4BBE42452
:10042000203284725E228100C9F124ECA1E53D27CF
:100430006A0A5C1C192F1E39650A11241FBECFEFF2
:10044000D1E2DEBFCDBF00E00CBF18E0A0E0B2E01B
:10045000E2E7F3E800E00BBF02C007900D92A83876
:10046000B107D9F71BBE10E1A8E8B8E001C01D92A2
:10047000AD3DB107E1F714E0C8E3D4E004C0229732
:10048000FE010E947241C033D107C9F70E943C3A75
:100490000C94AD41B5CDEF92FF920F931F93F22FC5
:1004A000F02E47FD02C0E4E001C0E4E1242F332731
:1004B00027FD309537FF03C0309521953F4F4F2DD5
:1004C000512F0F2FEE2EBFD28F2D912F1F910F91F5
:1004D000FF90EF900895CF93DF93BC018230910598
:1004E00010F462E070E0A091DB10B091DC10ED013F
:1004F000E0E0F0E040E050E021C08881998186177B
:10050000970769F48A819B81309719F093838283DE
:1005100004C09093DC108093DB10FE0134C0681798
:10052000790738F44115510519F08417950708F437
:10053000AC01FE018A819B819C01E9012097E9F6CB
:1005400041155105A9F1CA01861B970B049708F4C0
:10055000BA01E0E0F0E02AC08D919C9111978417D8
:100560009507F9F46417750781F412968D919C91A3
:100570001397309719F09383828304C09093DC1013
:100580008093DB10FD0132964CC0CA01861B970B8D
:10059000FD01E80FF91F6193719302978D939C936E
:1005A00040C0FD01828193819C01D9011097A1F681
:1005B0008091D9109091DA10892B41F4809125080F
:1005C000909126089093DA108093D91040912708D3
:1005D000509128084115510541F44DB75EB78091FF
:1005E000230890912408481B590B2091D910309171
:1005F000DA10CA01821B930B8617970780F0AB01B4
:100600004E5F5F4F8417950750F0420F531F509372
:10061000DA104093D910F9016193719302C0E0E0C0
:10062000F0E0CF01DF91CF910895CF93DF93009752
:1006300009F450C0EC0122971B821A82A091DB10B2
:10064000B091DC10109709F140E050E0AC17BD0705
:1006500008F1BB83AA83FE0121913191E20FF31FC0
:10066000AE17BF0779F48D919C911197280F391F10
:100670002E5F3F4F3983288312968D919C9113975B
:100680009B838A834115510571F4D093DC10C0938C
:10069000DB1020C012968D919C911397AD010097AD
:1006A00011F0DC01D3CFFA01D383C28321913191C0
:1006B000E20FF31FCE17DF0769F488819981280FB5
:1006C000391F2E5F3F4FFA01318320838A819B813E
:1006D00093838283DF91CF910895A0E0B0E0E3E7B8
:1006E000F3E00C9478416C01009721F4CB01F3DE28
:1006F0006C01BDC08EEF882E8FEF982E8C0C9D1C48
:100700008601060F171F0815190508F4AEC0F4017D
:10071000A081B181A617B707B0F0A530B10508F4E4
:10072000A6C0CD0104978617970708F4A0C01297BA
:10073000A61BB70BF801A193B193D4016D937C93E1
:10074000CF0173DF94C07B01EA1AFB0AEEEFFFEFE3
:10075000EE0EFF1E36016A0E7B1EC091DB10D0919B
:10076000DC1044245524AA24BB244AC0C615D7054E
:10077000E1F5488159814E155F05B8F1CA0104972A
:100780008E159F05B0F41296A40FB51FF401B18326
:10079000A0832A813B814114510431F0D201139688
:1007A0003C932E93129763C03093DC102093DB10A0
:1007B0005EC08A819B81F8019383828342505040BE
:1007C0004E195F09518340834114510431F0D20125
:1007D00013961C930E93129704C01093DC10009391
:1007E000DB10F4017183608342C088819981A8166F
:1007F000B90608F45C012E018A819B819C01E90104
:10080000209709F0B3CF8091D9109091DA10861516
:100810009705E9F4A616B706D0F420912708309181
:1008200028082115310541F42DB73EB780912308E2
:1008300090912408281B390B02171307B0F410936A
:10084000DA100093D910D4016D937C9310C0CB01C2
:1008500042DEEC01009749F0F40140815181B6017C
:1008600046D0C601E2DE6E0102C0CC24DD24C60102
:10087000CDB7DEB7E0E10C9494411F93FC019927BA
:100880008827BC01E89411911032E9F3193010F077
:100890001E30C8F31B3249F01D3241F4689405C084
:1008A000BDD0610F711D811D911D119110531A3022
:1008B000B8F33EF490958095709561957F4F8F4F7A
:1008C0009F4F1F910895FB01DC0105900D920020C0
:1008D000E1F70895FB01DC0104C08D9101908019BE
:1008E00021F441505040C8F7881B990B0895FB0133
:1008F000DC0102C001900D9241505040D8F708959C
:10090000FC018191861721F08823D9F79927089552
:100910003197CF010895FB01DC0101900D92002079
:10092000E1F70895FB01DC014150504048F001908F
:100930000D920020C9F701C01D9241505040E0F7D0
:100940000895FB0151915523A9F0BF01DC014D91A0
:1009500045174111E1F759F4CD010190002049F00C
:100960004D9140154111C9F3FB014111EFCF81E0D9
:1009700090E001970895FB019F01E8944230C4F094
:100980004532B4F44A3029F497FB1EF490958195D2
:100990009F4F642F77270E945C41805D8A330CF063
:1009A000895D8193CB010097A1F716F45DE2519325
:1009B0001082C90181C2FA01CF93FF93EF932230D5
:1009C00044F1253234F5C22FE894CA3049F497FB3C
:1009D0003EF490958095709561957F4F8F4F9F4F16
:1009E0002C2F332744275527FF93EF930E943A413A
:1009F000EF91FF91605D6A330CF0695D6193B9011D
:100A0000CA01605070408040904051F716F4CDE22A
:100A1000C19310828F919F91CF914EC2592F482F31
:100A2000372F262F660F771F881F991F660F771F96
:100A3000881F991F620F731F841F951F660F771FF2
:100A4000881F991F0895A9E0B0E0E9E2F5E00C9451
:100A50007A416A01122FA02EBE2C2BE3201718F426
:100A60002CE3922E02C0902E9394AE014F5F5F4F05
:100A700027E0092D49D1BC018981E82EFF24C70157
:100A800089709070019711F4ADE209C0B1FE02C007
:100A9000ABE205C0B0FC02C0A0E001C0A0E2E3FEF2
:100AA0003BC0AA2311F423E001C024E0211710F079
:100AB00020E002C0121B212FEB2CB4FE02C0322F0B
:100AC0000AC0F601322F80E202C0819331503323F5
:100AD000E1F7C20ED11CAA2319F0F601A1936F0110
:100AE000F6013196E2FE05C09EE4D6019C9381E4B6
:100AF00004C09EE6D6019C9381E611968C93918367
:100B00003296DF01832F90E202C09D9381508823AB
:100B1000E1F7E30FF11D40C0E2FE42C0AA2311F449
:100B200023E001C024E0211710F020E002C0121BD6
:100B3000212FEB2CB4FE02C0922F0AC0F601922F97
:100B400080E202C0819391509923E1F7C20ED11C3B
:100B5000AA2319F0F601A1936F01F6013196E2FE86
:100B600008C089E4D6018C938EE411968C9386E4B8
:100B700007C089E6D6018C938EE611968C9386E6A3
:100B800081833296DF01892F20E202C02D938150AC
:100B90008823E1F7E90FF11D10822EEF3FEFAFC080
:100BA000161617061CF041E050E003C0AB014F5F82
:100BB0005F4FAA2019F480E090E003C08A2D90E0F6
:100BC000019620E030E0AA2311F021E030E0240F6C
:100BD000351F280F391F812F90E02817390714F08F
:100BE00020E002C0121B212F4B2D50E0CA01807162
:100BF0009070B4FC0DC0B3FC0BC0F601322F40E284
:100C000002C0419331503323E1F7C20ED11C01C021
:100C1000322FAA2319F0F601A1936F01892B11F04D
:100C2000132F0AC0F601132F80E302C081931150E5
:100C30001123E1F7C30ED11C092D060FBA8090E1F4
:100C4000892E912C8E209F20E4FE04C0F1E3BF1674
:100C500009F40150101614F001E003C0093008F047
:100C600008E09B0177FF02C020E030E0CB01019655
:100C7000821B930BFE013196E80FF91F8EE2F82ECE
:100C80003B01601A71088A2D90E044275527481BC4
:100C9000590B8FEF2F3F380719F4D601FD926D01E4
:100CA000621773072CF06216730614F4808101C07A
:100CB00080E32150304031962417350724F0D601C7
:100CC0008D936D01E6CF2617370749F4B5E3BB15C1
:100CD00028F0BB1621F48114910409F481E3F60194
:100CE0008193D601812F90E202C09C93815011968E
:100CF0008823D9F7E10FF11D108220E030E0C9010F
:100D00002996EEE00C949641283008F027E033272E
:100D1000DA01990F311D87FD91600096610571051B
:100D200039F432602E5F3D9330E32A95E1F7089560
:100D30009F3F30F080387105610509F03C5F3C5FF2
:100D40003D93913008F08068911DDF93CF931F93FE
:100D50000F93FF92EF92192F987F9695E92F969512
:100D60009695E90FFF27E057FC4F99273327EE248C
:100D7000FF24A701E70105900894079428F4360F93
:100D8000E71EF81E491F511D660F771F881F991F08
:100D90000694A1F70590079428F4E70EF81E491F62
:100DA000561FC11D770F881F991F661F0694A1F754
:100DB0000590079428F4F80E491F561FC71FD11D30
:100DC000880F991F661F771F0694A1F70590079457
:100DD00020F4490F561FC71FD81F990F661F771F92
:100DE000881F0694A9F784911095177041F0D69545
:100DF000C79557954795F794E7941A95C1F7E6E399
:100E0000F3E0689415901591359165919591059051
:100E10007FE27395E118F10A430B560BC90BD00919
:100E2000C0F7E10CF11E431F561FC91FD01D7EF4F1
:100E3000703311F48A95E6CFE894015030F0080F32
:100E40000AF40027021708F4202F2395022F7A3383
:100E500028F079E37D932A95E9F710C07D932A95D0
:100E600089F6069497956795379517951794E11825
:100E7000F10A430B560BC90BD00998F023957E91CC
:100E800073957A3308F070E37C932013B8F77E9162
:100E900070617D9330F0839571E37D9370E32A95C3
:100EA000E1F71124EF90FF900F911F91CF91DF9107
:100EB000992787FD90950895DC01FC01672F7191BA
:100EC0007723E1F7329704C07C916D937083629130
:100ED000AE17BF07C8F308950F931F93CF93DF9307
:100EE000C7EED8E003ED18E08881882321F0D8010F
:100EF000ED91FC91199521960E5F1F4FB8E0C13F0F
:100F0000DB0791F7DF91CF911F910F91089508951D
:100F100008951F920F920FB60F9211248F9381E0C4
:100F200080936E0A8F910F900FBE0F901F901895AF
:100F30000895CF93DF93EC012091870A3091880ABE
:100F4000F901EE0FFF1FE558F54FD183C083809163
:100F5000890A90918A0A4091850A5091860A281739
:100F6000390721F5C9010196452B79F465E070E058
:100F70000E9427419093880A8093870A81E090E03D
:100F80009093860A8093850A1DC065E070E00E94F8
:100F900027419093880A8093870A90938A0A8093C6
:100FA000890A81E090E09B838A830CC02F5F3F4FCA
:100FB0003093880A2093870A4F5F5F4F5093860AC9
:100FC0004093850A8091850A9091860A892B59F071
:100FD0008091EC08882339F41092FC081092FB08E9
:100FE00081E08093EC08DF91CF910895CF93DF9358
:100FF000EC012091970A3091980AF901EE0FFF1F3A
:10100000E557F54FD183C0838091990A90919A0A50
:101010004091950A5091960A2817390721F5C90180
:101020000196452B79F465E070E00E94274190938A
:10103000980A8093970A81E090E09093960A8093B3
:10104000950A1DC065E070E00E9427419093980AC0
:101050008093970A90939A0A8093990A81E090E08E
:101060009D838C830CC02F5F3F4F3093980A209351
:10107000970A4F5F5F4F5093960A4093950A80916D
:10108000950A9091960A892B59F08091EA08882355
:1010900039F41092F8081092F70881E08093EA087A
:1010A000DF91CF91089521E030E03093BA0820938A
:1010B000B9081092BE081092BD081092BC08109298
:1010C000BB0822E030E03093C0082093BF08909323
:1010D000C2088093C1088091FF0890910009909305
:1010E000C4088093C308F8948FE49AE07FDF789473
:1010F00087E090E0909300098093FF080895CF93D4
:10110000DF93C091950AD091960A209719F4E0E0F8
:10111000F0E022C08091990A90919A0AFC01EE0FAA
:10112000FF1FE557F54F0190F081E02D2091970AC0
:101130003091980A2817390709F4C901019665E02A
:1011400070E00E94274190939A0A8093990A219710
:10115000D093960AC093950ACF01DF91CF9108955D
:10116000CF93DF93EC012091A70A3091A80AF901EF
:10117000EE0FFF1FE556F54F918380838091A90AFA
:101180009091AA0AE091A50AF091A60A28173907BA
:1011900021F5C9010196EF2B79F465E070E00E941A
:1011A00027419093A80A8093A70A81E090E090934A
:1011B000A60A8093A50A20C065E070E00E9427413E
:1011C0009093A80A8093A70A9093AA0A8093A90AE9
:1011D00081E090E09B838A830FC0C901019665E09E
:1011E00070E00E9427419093A80A8093A70A319645
:1011F000F093A60AE093A50A8091A50A9091A60A09
:10120000892B59F08091ED08882339F41092FE085B
:101210001092FD0881E08093ED08DF91CF91089551
:10122000CF93DF93C091A50AD091A60A209719F415
:10123000E0E0F0E022C08091A90A9091AA0AFC01A6
:10124000EE0FFF1FE556F54F0190F081E02D209144
:10125000A70A3091A80A2817390709F4C90101968D
:1012600065E070E00E9427419093AA0A8093A90A42
:101270002197D093A60AC093A50ACF01DF91CF9101
:1012800008952091B70A3091B80AF901EE0FFF1FB7
:10129000E555F54F918380838091B90A9091BA0A00
:1012A000E091B50AF091B60A2817390701F5C9018E
:1012B0000196EF2B79F465E070E00E94274190934E
:1012C000B80A8093B70A81E090E09093B60A8093C1
:1012D000B50A1CC065E070E00E9427419093B80AEF
:1012E0008093B70A9093BA0A8093B90A0FC0C901D4
:1012F000019665E070E00E9427419093B80A8093C0
:10130000B70A3196F093B60AE093B50A8091B50A10
:101310009091B60A892B59F08091EE08882339F410
:10132000109200091092FF0881E08093EE08089562
:10133000CF93DF93C091B50AD091B60A209719F4E4
:10134000E0E0F0E022C08091B90A9091BA0AFC0175
:10135000EE0FFF1FE555F54F0190F081E02D209134
:10136000B70A3091B80A2817390709F4C90101965C
:1013700065E070E00E9427419093BA0A8093B90A11
:101380002197D093B60AC093B50ACF01DF91CF91D0
:101390000895CF93DF938130910509F052C06F5FBC
:1013A0007F4F09F08FC080EA98E060E072E00E9411
:1013B000F83D87E099E060E072E00E94F83D8EE041
:1013C00099E00E94F41AC9E2D9E0CE01049660E0E7
:1013D00072E00E94F83DCE010B9660E072E00E9440
:1013E000F83D629689E0CD3DD80779F780EE99E027
:1013F0000E94F41A81E09AE00E94F41A8CE19AE0CB
:101400000E94F41A88E39AE060E072E00E94F83DDE
:1014100087E69AE060E072E00E94F83D8DEB9AE08A
:1014200060E072E00E94F83D85EE9AE060E072E0D4
:101430000E94F83D8AE09BE060E072E00E94F83D87
:1014400041C0892B09F03EC06F5F7F4FD9F58AE01C
:101450009BE00E94EC3E85EE9AE00E94EC3E8DEB14
:101460009AE00E94EC3E87E69AE00E94EC3E88E318
:101470009AE00E94EC3E8CE19AE00E94071B81E01A
:101480009AE00E94071B80EE99E00E94071BCBECBC
:10149000D9E0CE010B960E94EC3ECE0104960E944C
:1014A000EC3E629789E0C731D80799F78EE099E062
:1014B0000E94071B87E099E00E94EC3E80EA98E0DA
:1014C0000E94EC3EDF91CF91089580E090E06FEFB5
:1014D0007FEF5FCF81E090E06FEF7FEF5ACF81E049
:1014E0008093370A1092440A1092430A1092400ADD
:1014F00010923F0A1092420A1092410A10924C0A2E
:1015000010924B0A10924E0A10924D0A88E39AE00C
:1015100060E072E00C94113EEF92FF920F931F93E4
:10152000DF93CF93CDB7DEB7A5970FB6F894DEBFA4
:101530000FBECDBF8091F7089091F80881309105DA
:10154000A9F18630910509F4F2C0892B09F001C197
:10155000D6DD9093CA0A8093C90A892B01F1B1E0C4
:10156000EB2EF12CF092CC0AE092CB0A0AE01BE0C1
:10157000C80160E072E00E94113E1093D20A00930D
:10158000D10A1092CE0A1092CD0AF092F808E09299
:10159000F708F8948BEC9AE0CCDC7894E0C01092D9
:1015A000F8081092F7081092EA08D9C08091CD0A85
:1015B0009091CE0A029709F0D2C08AE09BE061E0E8
:1015C00072E00E94B33DE091C90AF091CA0A01900D
:1015D000F081E02DEE0FFF1FEE5FFD4F65917491DE
:1015E0008CEE9AE070D90CEE1AE00AC08AE09BE01B
:1015F0000E94A03D0F5F1F4F8BE00A30180721F0BB
:10160000F8016081662391F7E091C90AF091CA0A56
:1016100086819781892B09F468C08AE09BE069E0A4
:101620000E94A03DE091C90AF091CA0A828193818B
:101630008130910599F18230910509F443C0892BDD
:1016400009F053C0608571858E010F5F1F4FC8017F
:101650004AE00E94593E8AE09BE0B8010E94C13DE9
:10166000C8010E94EC3EE091C90AF091CA0A868145
:1016700097810297D1F58AE09BE069E00E94A03D46
:101680008E01085F1F4FE091C90AF091CA0A628576
:101690007385C8014AE00E94593E0BC08E01015F6C
:1016A0001F4F4085518562857385C8012AE00E94DD
:1016B000283E8AE09BE0B8010E94C13DC8010E941B
:1016C000EC3E13C06085718582859385E6E1EE2E40
:1016D000F12CEC0EFD1E4AE025E087010E944B0232
:1016E0008AE09BE0B7010E94B33D81E090E09093D7
:1016F000DE0A8093DD0A1092E00A1092DF0A8EE083
:1017000099E09093E40A8093E30A85EE9AE06AE018
:101710007BE00E94CE3E86E090E09093F8088093B4
:10172000F708F8948DED9AE01BDD789418C080914D
:10173000DF0A9091E00A8230910589F4E091C90AAC
:10174000F091CA0A958384831092F8081092F708E2
:1017500006C08DE590E163E072E00E94113CA59621
:101760000FB6F894DEBF0FBECDBFCF91DF911F91B2
:101770000F91FF90EF900895DF93CF93CDB7DEB731
:101780006B970FB6F894DEBF0FBECDBF8091FD08FA
:101790009091FE08892B09F077C042DDFC019093FF
:1017A000C60A8093C50A009709F468C080819181B8
:1017B000009709F469C0019709F059C0CE0101965C
:1017C00063E17BE040E252E023E10E942E1E8B8128
:1017D0009C8190931109809310098D819E81AF8126
:1017E000B8858093120990931309A0931409B093BC
:1017F000150989859A85AB85BC85809316099093D8
:101800001709A0931809B0931909AAE1B9E0FE01DC
:101810003D968DE001900D928150E1F78A8D9B8D70
:101820009093280980932709CE0101960E94071BF7
:10183000E091C50AF091C60A868197813896BF016A
:101840000E94543CE091C50AF091C60A86819781B6
:101850000E94561BE091C50AF091C60A82E090E012
:10186000938382831092FE081092FD080DC08DE5CF
:1018700090E163E072E00E94113C06C01092FE0805
:101880001092FD081092ED086B960FB6F894DEBF2B
:101890000FBECDBFCF91DF9108958091F108909157
:1018A000F2088130910509F1823091051CF4892BF1
:1018B00049F008958230910509F477C0039709F043
:1018C00090C085C084B7877F84BF809160008861A5
:1018D0008093600081E2809360008091600080646A
:1018E0008093600081E090E06DC080910509909147
:1018F0000609892B09F075C083B7817F866083BF95
:101900006CE271E080E090E00E94D13383B78160A7
:1019100083BF889583B78E7F83BF83B78E7F83BF56
:101920008DE061E00E94763562E370E080E090E057
:101930000E94D1338DE060E00E9476358091110BDA
:101940009091120B08969093120B8093110BF894C0
:101950008091DD09882399F0789422E030E030937B
:10196000DF092093DE0981E08093E8081092F408F3
:101970001092F3083093F2082093F10808958091B3
:10198000FB09882381F078948091050990910609DC
:10199000806190930609809305091092FB0981E00C
:1019A0008093EB080895789408958091E80888233F
:1019B000C1F481E08093E9081092F6081092F508CE
:1019C00083E090E09093F2088093F108089580916D
:1019D000E908882331F481E090E09093F208809345
:1019E000F10808951092EB081092FA081092F90885
:1019F00081E090E09093F2088093F108109206093C
:101A0000109205091092FB0981E06FEE73E140E04E
:101A100050E00E943F316CE271E080E090E004C051
:101A200068EE73E080E090E00E94D13383E00E9492
:101A3000A835892BA9F308954F925F926F927F92F8
:101A40008F929F92AF92BF92CF92DF92EF92FF92CE
:101A50000F931F93DF93CF93CDB7DEB72E970FB6BB
:101A6000F894DEBF0FBECDBFDE011196E8E4F8E0CA
:101A700087E001900D928150E1F78CB58093C40A04
:101A800084E00E94EF1ACC24DD242E010894411C2E
:101A9000511C58E0852E912C8C0E9D1E46EF642E15
:101AA0004FEF742E07C083E0C816D10419F434E058
:101AB000C32ED12CF201EC0DFD1D208130E0C401BC
:101AC00060EA78E0A9012E5F3F4F0E94893EC40181
:101AD0000E94773C7B018C015B01C4010E94EC3EBB
:101AE000C7016AE070E00E9427418B0184E060E05A
:101AF0000E9476358C2D80588EBD0DB407FEFDCF2B
:101B00008EB5069DC001079D900D169D900D112468
:101B100024E0000F111F2A95E1F7800F911F8A0D15
:101B20009B1D8EBD0DB407FEFDCF8EB584E061E038
:101B30000E9476350894C11CD11C87E0C816D104D8
:101B40000CF4B1CF8091C40A8CBD2E960FB6F894D8
:101B5000DEBF0FBECDBFCF91DF911F910F91FF90E0
:101B6000EF90DF90CF90BF90AF909F908F907F903D
:101B70006F905F904F9008958F929F92AF92BF9217
:101B8000CF92DF92EF92FF920F931F93DF93CF9349
:101B9000CDB7DEB72E970FB6F894DEBF0FBECDBF20
:101BA0005C017B018CB58093C40A84E00E94EF1A2B
:101BB000CC24DD244E010894811C911C07C083E0D5
:101BC000C816D10419F404E0C02ED12C84E060E0E2
:101BD0000E947635CEBC0DB407FEFDCF8EB51EBC7F
:101BE0000DB407FEFDCF8EB5082F10E084E061E054
:101BF0000E947635A8014F70507082E0C816D1045B
:101C0000C1F4C8018073907014E0969587951A9579
:101C1000E1F78230910519F484E190E005C081304C
:101C2000910511F48AE090E0840F951F9E838D83C7
:101C30006AC084E0C816D104B9F4C80180739070FA
:101C4000B4E096958795BA95E1F79C01A3E0220F41
:101C5000331FAA95E1F7880F991F280F391F240F0A
:101C6000351F3A8729874FC085E0C816D104B9F4DB
:101C7000C80180719070E4E096958795EA95E1F748
:101C80009C0173E0220F331F7A95E1F7880F991FAB
:101C9000280F391F240F351F3C872B8734C086E05F
:101CA000C816D104A9F4C80124E0969587952A9511
:101CB000E1F79C0103E0220F331F0A95E1F7880F3B
:101CC000991F280F391F240F351F3E872D871BC0F2
:101CD000F601EE0FFF1FE80DF91DC8018077907027
:101CE000A4E096958795AA95E1F79C0173E0220FF1
:101CF000331F7A95E1F7880F991F280F391F240F9A
:101D0000351F318320830894C11CD11C87E0C8167D
:101D1000D1040CF454CF0B851C850A3011052CF42A
:101D2000C70160E070E00E94703DC701B8010E94E9
:101D3000703DC7016BE272E00E94B33D09851A85D0
:101D40000A3011052CF4C70160E070E00E94703D7C
:101D5000C701B8010E94703DC7016BE272E00E94AA
:101D6000B33D0D851E850A3011052CF4C70160E0D6
:101D700070E00E94703DC701B8010E94703DC7012C
:101D800061E072E00E94B33D0D811E810A301105B1
:101D90002CF4C70160E070E00E94703DC701B801FB
:101DA0000E94703DC7016DE272E00E94B33D0B815D
:101DB0001C810A3011052CF4C70160E070E00E941C
:101DC000703DC701B8010E94703DC7016DE272E02D
:101DD0000E94B33D09811A810A3011052CF4C70114
:101DE00060E070E00E94703DC701B8010E94703D44
:101DF0008091C40A8CBDC501B7010E94E33EC501B4
:101E00002E960FB6F894DEBF0FBECDBFCF91DF91F7
:101E10001F910F91FF90EF90DF90CF90BF90AF9008
:101E20009F908F900895CF92DF92EF92FF920F9341
:101E30001F93DF93CF93CDB7DEB7C95AD0400FB60B
:101E4000F894DEBF0FBECDBF8DE590E140E855E2CE
:101E500060E070E00E94FC378DE590E16FE272E097
:101E60000E94113C8AE061E00E9476358AE061E0E0
:101E70000E94C3348DE061E00E94C3348DE060E0D5
:101E80000E9476358BE061E00E9476358BE061E060
:101E90000E94C3348CE060E00E9476358CE061E003
:101EA0000E94C33486E060E00E94C33489E062E0AF
:101EB0000E94C33488E062E00E94C33487E062E09D
:101EC0000E94C33489E00E94A8358C019093C80A0F
:101ED0008093C70A89E00E94A8357C01EE0CFF1CA4
:101EE000E02AF12AF092C80AE092C70A89E00E942B
:101EF000A835880F991F880F991FE82AF92AF092B0
:101F0000C80AE092C70A84E061E00E94763584E066
:101F100061E00E94C33484E061E00E94763585E090
:101F200061E00E94763585E061E00E94C33485E07F
:101F300061E00E94763586E061E00E94763586E0B9
:101F400061E00E94C33486E061E00E947635E7EEEE
:101F5000F8E0119288E0E13FF807D9F787E897E0C9
:101F60009093D6088093D5081092E8081092F40850
:101F70001092F30888E997E09093D8088093D708E7
:101F80001092E9081092F6081092F5088CE89AE091
:101F90009093DA088093D9081092EA081092F80812
:101FA0001092F70882E792E19093DE088093DD08B3
:101FB0001092EC081092FC081092FB088CEB9BE04E
:101FC0009093E0088093DF081092ED081092FE08CD
:101FD0001092FD088DE49CE09093D4088093D30880
:101FE0008F010A501040F80110821092F2081092EE
:101FF000F10886EF93E19093E2088093E108109254
:10200000EE08109200091092FF088BE698E1909379
:10201000DC088093DB081092EB081092FA0810920B
:10202000F90888E897E09093E4088093E308109219
:10203000EF081092020910920109109206091092FD
:10204000050987E061E00E94C33481E0F8018083E4
:1020500083E060E00E94C33481E06FEE73E140E012
:1020600050E00E943F311092FB098DE590E160E461
:1020700072E00E947F3B85E361E00E94C33483E10C
:102080009BE065E00E944E1F882331F48DE590E1CE
:1020900068E572E00E94113C8DE590E16FE672E028
:1020A0000E94113CCE01019662E972E00E94F83D67
:1020B00038E0C32ED12CCC0EDD1EC60160E072E0EC
:1020C0000E94F83D2FE0E22EF12CEC0EFD1EC70120
:1020D000B6010E94E33E8E010A5E1F4FC801B701A0
:1020E0004BDDC601B8010E94C13DC8010E94EC3E13
:1020F000C7010E94EC3E8DE590E167E972E00E9425
:102100007F3B8DE590E1B6010E94543CCE01CE9616
:1021100063E17BE040E252E023E10E942E1EFE01DB
:10212000E05CFF4F808191819093110980931009A9
:10213000FE01EE5BFF4F80819181A281B38180938C
:10214000120990931309A0931409B0931509FE0185
:10215000EA5BFF4F80819181A281B3818093160950
:1021600090931709A0931809B0931909AAE1B9E04F
:10217000FE01E65BFF4F8DE001900D928150E1F78B
:10218000FE01E95AFF4F8081918190932809809345
:102190002709CE01CE960E94071B8EE099E00E948F
:1021A000491B8823C1F08DE590E169EA72E00E9445
:1021B000113C8EE099E063EC72E00E947F3B8EE080
:1021C00099E0BE01685F7F4F0E94543C8EE099E029
:1021D0000E94561B06C08DE590E163E072E00E940C
:1021E000113C8E01035E1F4F98E0C92ED12CCC0EFE
:1021F000DD1EC801B60140E050E022E030E00E9460
:10220000893E7E010894E11CF11CC701B8010E94BF
:10221000C13DC8010E94EC3E8E010C5D1F4FC801FC
:10222000B60146E050E028E030E00E94893EC70158
:10223000B8010E94C13DC8010E94EC3EC7016AED91
:1022400072E00E94B33D8DE590E16FED72E00E9477
:102250007F3B8DE590E1B7010E94543C8BE2C82E94
:10226000D12CCC0EDD1EC701B60142E150E020E0CA
:1022700030E00E94E23C8E01075A1F4FC80163E123
:102280007BE0A60123E10E942E1EC8010E94491B8B
:10229000882329F08DE590E162EF72E004C08DE5BE
:1022A00090E16CE073E00E94113C8E010C581F4FCE
:1022B000C80163E17BE04BE253E023E10E942E1E64
:1022C000F801828193819093040A8093030A8481A8
:1022D0009581A681B7818093050A9093060AA09301
:1022E000070AB093080A80859185A285B3858093FB
:1022F000090A90930A0AA0930B0AB0930C0AADE066
:10230000BAE03C968DE001900D928150E1F7FE011C
:10231000EC58FF4F818D928D90931B0A80931A0A7F
:10232000CF010E94071B81E09AE00E94491B88238D
:1023300029F08DE590E167E373E004C08DE590E15D
:1023400066E573E00E94113C8E0101571F4FC801E2
:1023500063E17BE04AE753E023E10E942E1EF8018F
:102360008281938190931F0A80931E0A84819581B4
:10237000A681B7818093200A9093210AA093220A14
:10238000B093230A80859185A285B3858093240A22
:102390009093250AA093260AB093270AA8E2BAE0F0
:1023A0003C968DE001900D928150E1F7FE01E157DE
:1023B000FF4F818D928D9093360A8093350ACF011D
:1023C0000E94071B8CE19AE00E94491B882329F098
:1023D0008DE590E166E873E004C08DE590E165EA83
:1023E00073E00E94113C81E08093FC091092FE0989
:1023F0001092FD091092000A1092FF098DE590E1FC
:1024000069EC73E00E94113C64E670E080E090E0CB
:102410000E94D133CE01875A9F4F0E94071BCE01E5
:1024200008960E94EC3ECE0101960E94EC3EC755F4
:10243000DF4F0FB6F894DEBF0FBECDBFCF91DF9157
:102440001F910F91FF90EF90DF90CF9008950F9321
:102450001F93CF93DF93C091850AD091860A20976E
:1024600019F400E010E021C08091890A90918A0A55
:10247000FC01EE0FFF1FE558F54F008111812091FF
:10248000870A3091880A2817390709F4C90101968B
:1024900065E070E00E94274190938A0A8093890A40
:1024A0002197D093860AC093850A8DE590E167ED68
:1024B00073E00E947F3BA801662757FD6095762F49
:1024C0008DE590E120E130E00E941D3B6CE271E07F
:1024D00080E090E00E94D133C801DF91CF911F913D
:1024E0000F910895EF92FF920F931F93DF93CF9375
:1024F000CDB7DEB765970FB6F894DEBF0FBECDBF80
:102500008091FB089091FC08009731F097FD5EC028
:1025100003970CF05BC060C09ADFFC019093BC0A8B
:102520008093BB0A009709F44AC08081918100978B
:1025300021F0019709F050C00EC0668177818E01AD
:102540000F5F1F4FC8010E94E33EC80175DAC80142
:102550000E94EC3E2BC08DEB9AE060E072E00E949E
:10256000113E78E0E72EF12CEC0EFD1EC7016DEB5D
:102570007AE00E94E33E8E01015F1F4FC801B70160
:10258000FBDA8DEB9AE0B8010E94C13DC8010E94C0
:10259000EC3EC7010E94EC3EE091BB0AF091BC0A00
:1025A000868197816DEB7AE00E94CE3EE091BB0A76
:1025B000F091BC0A82E090E0938382830DC0109278
:1025C000FC081092FB081092EC0806C08DE590E123
:1025D00063E072E00E94113C65960FB6F894DEBF8E
:1025E0000FBECDBFCF91DF911F910F91FF90EF9064
:1025F0000895AF92BF92CF92DF92EF92FF920F9326
:102600001F930E94C3339B01AC018091730A909188
:10261000740AA091750AB091760AE0906F0AF09062
:10262000700A0091710A1091720A281739074A0737
:102630005B0748F480959095A095B095820F931F05
:10264000A41FB51F08C059016A01A81AB90ACA0A0D
:10265000DB0AD601C5018093770A9093780AA0938C
:10266000790AB0937A0A20E08E159F05A007B1077A
:1026700008F021E0822F1F910F91FF90EF90DF90E3
:10268000CF90BF90AF90089560936F0A7093700AD7
:102690008093710A9093720A0E94C3336093730A05
:1026A0007093740A8093750A9093760A0895EF9256
:1026B000FF920F931F930E94C3332091630A3091BE
:1026C000640A4091650A5091660AE0905F0AF090B2
:1026D000600A0091610A1091620A62177307840709
:1026E000950778F4E0E02095309540955095260FB9
:1026F000371F481F591F2E153F054007510760F02F
:102700000AC0E0E0621B730B840B950B6E157F050E
:102710008007910708F0E1E08E2F1F910F91FF9045
:10272000EF90089560935F0A7093600A8093610A46
:102730009093620A0E94C3336093630A7093640AA1
:102740008093650A9093660A0895EF92FF920F9323
:102750001F930E94C3339B01AC018091D1089091DB
:10276000D208A0E0B0E0E090CD08F090CE08009153
:10277000CF081091D008281739074A075B0778F46B
:1027800060E080959095A095B095820F931FA41F4F
:10279000B51F8E159F05A007B10760F00AC060E065
:1027A000281B390B4A0B5B0B2E153F0540075107C1
:1027B00008F061E0862F1F910F91FF90EF90089530
:1027C0006093CD087093CE088093CF089093D00883
:1027D0000E94C3337093D2086093D108089581E0BA
:1027E0000E94BB3181E08093FB0908950F931F93F2
:1027F000DF93CF93CDB7DEB72E970FB6F894DEBF39
:102800000FBECDBF8091FF089091000985309105E2
:1028100009F496C0892B09F493C08CE790E10E94DB
:102820007938892B09F48CC08CE790E10E94AA3892
:10283000082F8D3021F080528F3508F078C088E362
:102840009AE0602F0E94A03D2091490A30914A0AE7
:102850002230310599F12330310544F42115310539
:1028600081F02130310509F06BC01CC024303105E6
:10287000A9F1243031053CF12530310509F060C063
:1028800044C00D3019F082E090E023C080914B0AE3
:1028900090914C0A019690934C0A80934B0A81E0E8
:1028A00090E017C00A3071F180914B0A90914C0A68
:1028B000019690934C0A80934B0A42C00D3011F55B
:1028C00083E090E006C00A30E9F00D30C9F584E0FD
:1028D00090E090934A0A8093490A32C00A3091F4FA
:1028E00080913F0A9091400A01969093400A80930C
:1028F0003F0A10924C0A10924B0A10924A0A109208
:10290000490A1EC085E090E0E4CF10924C0A109274
:102910004B0A80914D0A90914E0A019690934E0A6F
:1029200080934D0A30934A0A2093490A09C0809146
:102930004D0A90914E0A019690934E0A80934D0A4B
:102940008091FF08909100098330910509F4A7C098
:10295000843091055CF48130910509F43FC08230E8
:1029600091050CF057C0892B69F0F3C086309105B2
:1029700009F4D8C08730910509F4BCC0049709F068
:10298000E8C0B0C00E94980990935C0A80935B0AEB
:10299000892BD9F078948091050990910609806877
:1029A0009093060980930509F89487E061E00E94FE
:1029B000763510925E0A10925D0A60EE7EE280E04B
:1029C00090E0B0DE81E090E020C08CE790E16DEE19
:1029D00073E00E94113C1092EE08BBC068DE8823B1
:1029E00009F4B7C087E060E00E94763560E177E2E5
:1029F00080E090E097DE0E946F0A8CE790E164EE41
:102A000070E00E947F3B82E090E090930009809309
:102A1000FF089FC08091430A9091440A0297C1F534
:102A20008E010F5F1F4FC80164EE70E00E94F83DF9
:102A300088E39AE0B8010E94D63C892B11F000E0AF
:102A400015C08E01085F1F4FC8016EEC71E00E9437
:102A5000F83D88E39AE0B8010E94D63C00E0039775
:102A600009F401E0CE0108960E94EC3ECE010196E9
:102A70000E94EC3E002349F081E090E09093460AEA
:102A80008093450A83E090E0C0CF80E090E02FC0C3
:102A90000EDE882309F45DC081E090E028C00E942A
:102AA0006F0AE091450AF091460A3196F093460A82
:102AB000E093450AEE0FFF1FE055FE4F60817181E4
:102AC0008CE790E10E947F3B60E27EE480E090E052
:102AD00029DE82E090E09093480A8093470A84E0E0
:102AE00090E093CFE4DD8823A1F183E090E00E94A1
:102AF00053082FC08091530A9091540A029749F5C8
:102B000084E090E090935E0A80935D0A87E061E044
:102B10000E94763568E572E080E090E003DE86E0B2
:102B200090E073CFC4DD8823A1F078941092060959
:102B300010920509F894E0915B0AF0915C0A80918B
:102B40005D0A90915E0A9183808310920009109231
:102B5000FF082E960FB6F894DEBF0FBECDBFCF9103
:102B6000DF911F910F910895CF92DF92EF92FF9224
:102B70000F931F9380E00E948F3490938908809375
:102B8000880864E670E080E090E00E94D1336091B4
:102B9000880870918908882777FD8095982F0E9472
:102BA000F53F24EE37E94BEE5CE30E94A5406093CD
:102BB000900870939108809392089093930881E015
:102BC0000E948F3490938B0880938A0864E670E0AB
:102BD00080E090E00E94D13360918A0870918B0868
:102BE000882777FD8095982F0E94F53F23EC36ECDF
:102BF00048E85BE30E94A5406093940870939508B1
:102C0000809396089093970882E00E948F34909367
:102C10008D0880938C0864E670E080E090E00E946C
:102C2000D13360918C0870918D08882777FD80954D
:102C3000982F0E94F53F2AE63EE04DEC5BE30E94B0
:102C4000A540609398087093990880939A08909390
:102C50009B0883E00E948F3490938F0880938E08A6
:102C600064E670E080E090E00E94D13360918E08CD
:102C700070918F08882777FD8095982F0E94F53FE7
:102C800029E337E549EC5BE30E94A54060939C088B
:102C900070939D0880939E0890939F080DE510E126
:102CA000C8016BEF73E00E947F3B40919008509108
:102CB00091086091920870919308C8012AE030E071
:102CC0000E940F3C84E0E82E84E0F82EC801B70192
:102CD0000E947F3B6091880870918908C8014AE092
:102CE00050E00E946D3BB6E0CB2EB4E0DB2EC80175
:102CF000B6010E947F3BC80169E074E00E947F3BFF
:102D0000409198085091990860919A0870919B0899
:102D1000C8012AE030E00E940F3CC801B7010E94C0
:102D20007F3B60918C0870918D08C8014AE050E0AB
:102D30000E946D3BC801B6010E947F3BC80167E15C
:102D400074E00E947F3B40919C0850919D086091E7
:102D50009E0870919F08C8012AE030E00E940F3C55
:102D6000C801B7010E947F3B60918E0870918F0867
:102D7000C8014AE050E00E946D3BC80160E274E087
:102D80000E947F3BC80162E274E00E947F3B409159
:102D90009408509195086091960870919708C80121
:102DA0002AE030E00E940F3CC801B7010E947F3B3F
:102DB00060918A0870918B08C8014AE050E00E9437
:102DC0006D3BC801B6010E94113C1F910F91FF900D
:102DD000EF90DF90CF9008950F931F93DF93CF93E1
:102DE000CDB7DEB7C758D0400FB6F894DEBF0FBEE0
:102DF000CDBFCE010196F8D3CE014C9663E17BE0C6
:102E00004EE254E023E12AD78E8D9F8D9C838B83E5
:102E100088A199A1AAA1BBA18D839E83AF83B88706
:102E20008CA19DA1AEA1BFA189879A87AB87BC87E2
:102E3000DE011D96FE01B8968DE001900D92815045
:102E4000E1F78DA99EA99B8F8A8FCE014C96DFD387
:102E50008E010F5F1F4FC8011CD48823B9F08DE588
:102E600090E167E374E00E947F3BC80161E574E094
:102E70000E94113CC80163E674E00E94113CC80145
:102E800015D48DE590E165E774E004C08DE590E12F
:102E900064EA74E00E94113CCE01C79663E17BE0D6
:102EA0004EE254E021E0DAD689AD9AAD9C838B8363
:102EB0008BAD9CADADADBEAD8D839E83AF83B8872A
:102EC000FE01FF9680819181A281B38189879A87D3
:102ED000AB87BC87DE011D96FE01ED5BFF4F8DE0E9
:102EE00001900D928150E1F7FE01E05BFF4F808180
:102EF00091819B8F8A8FCE01C79689D38E010F5FF8
:102F00001F4FC801C6D3882301F18DE590E16EEB18
:102F100074E00E94113CC801102F092F08C0812FB6
:102F2000902FDED3682F8DE590E10E94E538812F48
:102F3000902F8BD3892B99F7812F902FB7D383E1D3
:102F40009BE06EE274E065D506C08DE590E16EED24
:102F500074E00E94113C8E010E5A1F4FC80163E1BC
:102F60007BE04EE254E023E179D6F801828193813F
:102F70009C838B8384819581A681B7818D839E8379
:102F8000AF83B88780859185A285B38589879A8725
:102F9000AB87BC87DE011D963C968DE001900D92BB
:102FA0008150E1F7FE01EE5AFF4F818D928D9B8F8C
:102FB0008A8FCF012CD38E010F5F1F4FC80169D3B9
:102FC0008823B9F08DE590E165E075E00E947F3BD4
:102FD000C80161E574E00E94113CC80163E674E039
:102FE0000E94113CC80162D38DE590E16FE175E06C
:102FF00004C08DE590E16EE475E00E94113C8E0105
:1030000003591F4FC80163E17BE04EE254E021E029
:1030100025D6F801828193819C838B83848195815D
:10302000A681B7818D839E83AF83B8878085918584
:10303000A285B38589879A87AB87BC87DE011D96F9
:103040003C968DE001900D928150E1F7FE01E3592D
:10305000FF4F818D928D9B8F8A8FCF01D8D28E01A9
:103060000F5F1F4FC80115D3882301F18DE590E153
:1030700068E675E00E94113CC801102F092F08C0B6
:10308000812F902F2DD3682F8DE590E10E94E53898
:10309000812F902FDAD2892B99F783E19BE06EE2A2
:1030A00074E0B7D4812F902F01D306C08DE590E155
:1030B00068E875E00E94113CCE010196A8D2C9577C
:1030C000DF4F0FB6F894DEBF0FBECDBFCF91DF91BB
:1030D0001F910F9108950F931F938091F90890917C
:1030E000FA088430910509F451C18530910594F4B2
:1030F0008130910509F4DDC0823091051CF4892BE3
:1031000001F15DC28230910509F40FC1039709F006
:1031100056C237C18730910509F490C188309105B6
:1031200044F48530910509F464C1069709F047C25B
:1031300068C18830910509F4DDC1099709F03FC2E3
:103140001BC28DE590E10E947938892B09F499C062
:103150008DE590E10E94AA388D36910509F474C07E
:103160008E3691055CF482359105A9F08335910581
:10317000C9F18D34910509F069C06DC0843791059E
:1031800009F456C08837910509F447C08337910583
:1031900009F05CC039C08DE590E16FEA75E00E94EE
:1031A000113C809105099091060980619093060970
:1031B0008093050981E090E09093FA088093F908E4
:1031C0008DE590E168EB75E00E94113C68E873E1E1
:1031D00080E090E059DA80EA98E060E072E00E94D6
:1031E000113EEFC18DE590E164EE75E00E94113C67
:1031F000809105099091060980619093060980935A
:10320000050984E090E038C08DE590E161E176E069
:103210000E94113C8AE061E008C08DE590E169E21E
:1032200076E00E94113C8AE060E00E947635C7C1DA
:103230008DE590E162E476E00E94113CCDDD8DE504
:1032400090E16BE576E053C18FDCB9C18DE590E18B
:1032500065E776E04CC18DE590E166E876E00E9496
:10326000113C8091050990910609806190930609AF
:103270008093050986E090E09093FA088093F9081E
:10328000A0C18DE590E162EA76E00E94113C68EE13
:1032900073E080E090E00E94D1338DE590E10E94E0
:1032A000793802970CF48BC18DE590E10E94D338F8
:1032B00086C18DE590E10E947938892BC1F068E8DC
:1032C00073E180E090E0E0D98DE590E10E94AA38BA
:1032D000682F80EA98E00E94A03D8091A408909118
:1032E000A5080C9708F46DC182E090E0C5CF81D9A4
:1032F000882309F466C18DE590E169EC76E00E94CF
:10330000113C8DE590E16CED76E00E94113C10924D
:10331000EB08109206091092050981E06FEE73E147
:1033200040E050E00E943F314CC18DE590E16FEEEE
:1033300076E00E947F3B00EA18E08DE590E1B8015D
:103340000E94543C6CE271E080E090E00E94D13336
:103350001092A8081092A7081093AE080093AD0829
:103360001092AA081092A90883E090E09093FA08BE
:103370008093F908F89487EA98E00E949907789476
:1033800020C18091A9089091AA0837C08DE590E1ED
:103390006AE177E00E94113C1092BA081092B908D5
:1033A0001092BE081092BD0882E090E09093BC0895
:1033B0008093BB0881E090E09093C0088093BF08A1
:1033C00087EB96EEA0E4B6E48093C1089093C20820
:1033D000A093C308B093C40885E090E09093FA08E6
:1033E0008093F908F89489EB98E00E94F6077894A6
:1033F000E8C08091BD089091BE08029709F0E1C035
:10340000DEC01092C6081092C5081092C80810922B
:10341000C70889E298E09093CA088093C90880E5BC
:1034200090E09093CC088093CB08F89485EC98E0DA
:103430000E944109789487E090E01ECF8091C508F2
:103440009091C6088330910509F044C08DE590E164
:1034500064E377E00E94113C8CE790E16EE377E053
:103460000E947F3B8CE790E164E378E00E947F3B21
:103470008CE790E163E477E00E94113C8CE790E1F7
:103480006DE477E00E947F3B8CE790E169E278E0B1
:103490000E94113C8CE790E164E577E00E94113CCA
:1034A0008CE790E10E947B3A60E375E780E090E072
:1034B00087D988E090E09093FA088093F9088DE529
:1034C00090E166E677E00E94113C8DE590E16AE8C4
:1034D00077E04FC0049709F074C08DE590E162EA8F
:1034E00077E00E94113C8DE590E16EEC77E00E9460
:1034F000113C65C02AD9882339F58DE590E10E94F9
:103500007938892B81F08DE590E10E94AA388136C7
:1035100009F057C08DE590E10E94D3388CE790E127
:103520000E94D33817C08CE790E10E947938892B2C
:1035300009F447C08CE790E10E94AA38682F8DE516
:1035400090E10E94733A3DC08DE590E167EF77E02E
:103550000E94113C68EE73E080E090E031D989E090
:1035600090E09093FA088093F9088DE590E162EE7F
:1035700077E00E94113C25C0E8D8882311F18DE541
:1035800090E10E947938892B31F48CE790E10E9418
:103590007938892B71F08DE590E10E94D3388CE762
:1035A00090E10E94D33868EE73E080E090E008D9A3
:1035B00008C082E090E09093C8088093C7080E94FA
:1035C000F20C1F910F91089580E00E948C340E94AC
:1035D000130F68EB7BE080E090E00C94D1339CB556
:1035E000937F982B9CBD0895FC011382128288EE74
:1035F00093E0A0E0B0E084839583A683B78383E55E
:1036000098E091838083128E118E14860895FC01B8
:1036100083E598E0918380830895DF93CF930F92A1
:10362000CDB7DEB7FC016983A081B18112962D91DF
:103630003C911397BE016F5F7F4F41E050E0F9016D
:1036400019950F90CF91DF910895DC015996ED9176
:10365000FC915A97309719F420E030E018C0238984
:1036600034894589568982859385A485B585281B2B
:10367000390B4A0B5B0B2030B0E83B07B0E04B073F
:10368000B0E05B0720F02FEF3FE740E050E0C901DA
:103690000895DC015996ED91FC915A97309711F4F9
:1036A00080E008958581811181E00895CF93DF93B3
:1036B000EC01898D9A8D009741F00E94BB23898D82
:1036C0009A8D0E9415031A8E198EDF91CF9108955D
:1036D000FC01818D928D009711F00C947323089555
:1036E000DF93CF930F92CDB7DEB7FC01818D928D22
:1036F000009749F0BE016F5F7F4F41E050E00E94AC
:10370000A624019719F02FEF3FEF03C08981282FDE
:1037100030E0C9010F90CF91DF910895EF92FF92B1
:103720000F931F93DF93CF930F92CDB7DEB77C013A
:10373000DC0159968D919C915A97009719F400E0FD
:1037400010E01EC0BE016F5F7F4F41E050E00E945D
:10375000A624019719F00FEF1FEF12C08981082FDF
:1037600010E0D7015996ED91FC915A974285538507
:10377000648575854150504060407040CF01EED661
:10378000C8010F90CF91DF911F910F91FF90EF90A3
:103790000895CF93DF93EC01E98DFA8D309761F0B6
:1037A00013821282CF010E94E3269C01E98DFA8DDB
:1037B00082819381892B31F081E090E09B838A8321
:1037C00020E030E0C901DF91CF910895EF92FF92A0
:1037D0000F931F93CF93DF93EC01F62EE72E8A0110
:1037E0001B821A8288EE93E0A0E0B0E08C839D8378
:1037F000AE83BF8383E598E0998388838DE190E071
:103800000E946B029A8F898F009791F0DC018F2DB7
:103810009E2D9C01F9018DE101900D928150E1F7FF
:10382000CE010C96B8014CE050E00E949204188E34
:10383000DF91CF911F910F91FF90EF9008950F931B
:103840001F93CF93DF938C01FB01C081D181FC01D9
:10385000EC0FFD1F80818F3209F4219698012C0F07
:103860003D1FA0E0B0E00BC0FA01EA0FFB1F808310
:10387000119621962F5F3F4FAC30B10531F0F90121
:1038800080818F3211F0882379F7A40FB51F1C9225
:10389000F801EC0FFD1F80818F3209F42196FB01A6
:1038A000D183C083C00FD11F8881811181E0DF9156
:1038B000CF911F910F9108951092180B1092190B30
:1038C00010921C0B10921E0B82E090E0A0E0B0E082
:1038D00080931F0B9093200BA093210BB093220B8E
:1038E0001092360B1092400B10923F0B83E698E03B
:1038F00090933E0B80933D0B1092420B08952F92B4
:103900003F924F925F926F927F928F929F92BF925F
:10391000CF92DF92EF92FF920F931F93DF93CF939B
:10392000CDB7DEB7C954D0400FB6F894DEBF0FBE96
:10393000CDBF1C017B012A0139011B8A1A8A83E64B
:1039400098E0998B888B1D8A18AA1FA69EA78DA721
:103950001AAA1A8219828B0120E1C22ED12CCC0E18
:10396000DD1E93E0892E912C8C0E9D1E03C0C80194
:1039700086016C01C101BE016F5F7F4FA4015FDF53
:10398000B82E40E0882309F441E0C801B401930156
:10399000F2011995882331F40E151F0501F1C801B4
:1039A000EAD61DC0BB20A1F0C601B801A40121E0E8
:1039B0000E940529B82E0E151F0511F0C801DBD68F
:1039C000BB2069F00E151F0591F6CE018D96D0CF64
:1039D0000E151F0511F0C801CED681E001C080E0B0
:1039E000C75BDF4F0FB6F894DEBF0FBECDBFCF91E0
:1039F000DF911F910F91FF90EF90DF90CF90BF90DC
:103A00009F908F907F906F905F904F903F902F90FE
:103A100008959B01BC01665D7F4FC90147E75FE1E7
:103A200020E030E06CCF2F923F924F925F926F92E6
:103A30007F928F929F92AF92BF92CF92DF92EF923E
:103A4000FF920F931F93DF93CF93CDB7DEB7C75489
:103A5000D0400FB6F894DEBF0FBECDBF582E492E12
:103A6000FB013A01190184A595A5998B888B23E662
:103A700038E03F872E8786A58A8B87A58B8B80A908
:103A800091A9A2A9B3A98C8B9D8BAE8BBF8B84A966
:103A900095A9A6A9B7A9888F998FAA8FBB8F80AD4A
:103AA00091ADA2ADB3AD8C8F9D8FAE8FBF8F84AD26
:103AB00088A3FD9681919191A191B19189A39AA337
:103AC000ABA3BCA381919191A191B1918DA39EA330
:103AD000AFA3B8A7808191819AA789A71EA61DA62A
:103AE0003CA72BA718AA7A018E01025F1F4F3BE269
:103AF000A32EB12CAC0EBD1E4E010894811C911C4E
:103B000033C0D7018C918F3221F40894E11CF11C51
:103B10002BC0422F4E194D3008F04CE0C42EDD244E
:103B2000C401B701A6010E949204F401EC0DFD1D31
:103B30001082C50120D6C501B801A40121E00E9470
:103B40000529882351F4E52DF42D1382128283E692
:103B500098E091838083158265C0EC0CFD1CC80140
:103B60000AD6C50158018C01C7016FE270E00E94BE
:103B700080049C01009729F6E618F708F101F1820C
:103B8000E082E52DF42DD80112968D919C9113972A
:103B90009383828383E698E09183808314968C914B
:103BA0001497848315968C911597858316962D917D
:103BB0003D914D915C9119972683378340875187BA
:103BC0001A962D913D914D915C911D9722873387D7
:103BD000448755871E962D913D914D915C9151974B
:103BE00026873787408B518B52968C915297828BC8
:103BF00053962D913D914D915C915697238B348B2B
:103C0000458B568B57962D913D914D915C915A97CE
:103C1000278B308F418F528F5B968D919C915C9753
:103C2000948F838F852D942DC95BDF4F0FB6F89449
:103C3000DEBF0FBECDBFCF91DF911F910F91FF90DF
:103C4000EF90DF90CF90BF90AF909F908F907F903C
:103C50006F905F904F903F902F9008959F92AF92FA
:103C6000BF92CF92DF92EF92FF920F931F93DF9359
:103C7000CF93CDB7DEB7C657D0400FB6F894DEBFAE
:103C80000FBECDBFC82E992E8A01D22E43E0A42E9E
:103C9000B12CAC0EBD1EC501A8019E012F5F3F4F88
:103CA000C2DEE980FA80E00EF11EF701808143E672
:103CB00058E02885882309F03FC08D819E819BA311
:103CC0008AA359A348A38F818CA32DA389859A85A4
:103CD000AB85BC858EA39FA3A8A7B9A78D859E851C
:103CE000AF85B8898AA79BA7ACA7BDA789899A8900
:103CF000AB89BC898EA79FA7A8ABB9AB8D898AABCE
:103D00008E899F89A88DB98D8BAB9CABADABBEABBB
:103D10008A8D9B8DAC8DBD8D8FAB98AFA9AFBAAF9F
:103D20008E8D9F8D9CAF8BAF8C2D992DBE01605ECB
:103D30007F4F4EE158E09CC0FE01FF961182108239
:103D40005EAF4DAFFE01EE5BFF4F10822223A9F064
:103D50002250CE01CD96223048F46DE37BE0A701DE
:103D60002D2D0E940529882371F407C0B501A701F4
:103D70002D2D0E940529882321F48C2D992D34DCCA
:103D800078C0C501F8D4F6E0DF2251F0FE01E05B17
:103D9000FF4F4081518162817381CE01CD96DED388
:103DA0009E01265A3F4FFE01FF9680819181F901C5
:103DB0009383828383E698E091838083FE01EF5BA7
:103DC000FF4F8081F9018483FE01EE5BFF4F80810C
:103DD000F9018583FE01ED5BFF4F80819181A28116
:103DE000B381F90186839783A087B187FE01E95BE0
:103DF000FF4F80819181A281B381F90182879387EE
:103E0000A487B587FE01E55BFF4F80819181A28188
:103E1000B381F90186879787A08BB18BFE01E15BA7
:103E2000FF4F8081F901828BFE01E05BFF4F8081B3
:103E30009181A281B381F901838B948BA58BB68B81
:103E4000FE01EC5AFF4F80819181A281B381F9017B
:103E5000878B908FA18FB28FFE01E85AFF4F808130
:103E60009181F901948F838F8C2D992DB901A70130
:103E7000ADDC8C2D992DCA58DF4F0FB6F894DEBFFC
:103E80000FBECDBFCF91DF911F910F91FF90EF90AB
:103E9000DF90CF90BF90AF909F9008950F931F93A6
:103EA000CF93DF93EC01462F61E04ED28823C9F017
:103EB0008E01045F1F4FC801BE0141E00E94C92A64
:103EC000882339F4C801BE0140E00E94C92A882332
:103ED00041F0CE018A96B80194D6882319F081E08A
:103EE00001C080E0DF91CF911F910F91089544238D
:103EF00011F481E008950C94062AFC01673020F04B
:103F000086E1858380E00895262F30E060FD02C0C1
:103F1000663019F48DB58E7F02C08DB581608DBD80
:103F20008CB58C7F8CBD4CB522FD02C090E001C0E9
:103F300092E036952795822F8170842B892B8CBD3A
:103F400081E00895FF920F931F93CF93DF938B012E
:103F50000E94C333EB01FF24FA94FEBC0DB407FEAC
:103F6000FDCF8EB58F3F11F481E008C00E94C333AE
:103F70006C1B7D0B6017710780F380E0DF91CF91A0
:103F80001F910F91FF900895FC01848160E00C94D3
:103F90007635FC01848161E00C947635DC016EBDE0
:103FA000FA0120E030E00DB407FEFDCF80818EBD28
:103FB0000DB407FEFDCF81818EBD2E5F3F4F32963F
:103FC00082E02030380779F70DB407FEFDCF8FEF80
:103FD0008EBD0DB407FEFDCF8FEF8EBD0DB407FE75
:103FE000FDCF8FEF8EBD0DB407FEFDCF8EB51A96B7
:103FF0008C931A978F71853011F481E0089581E1D7
:1040000015968C931597CD01C4DF80E00895FF923B
:104010000F931F93CF93DF93EC010E94C3338B0167
:10402000FF24FA9409C00E94C333601B710B6D52C8
:10403000714010F08FE00DC0FEBC0DB407FEFDCF47
:104040008EB58A878F3F79F38E3F11F481E005C0EA
:104050008DE08D83CE019DDF80E0DF91CF911F91B8
:104060000F91FF900895CF93DF93EC018E81882309
:10407000C9F08FEF8EBD2F8138854FEF04C00DB48E
:1040800007FEFDCF4EBD2F5F3F4FC9010197815005
:104090009240A8F338872F830DB407FEFDCFCE01E1
:1040A00078DF1E82DF91CF910895DF92EF92FF9229
:1040B0000F931F93CF93DF93EC01D62E79018A01E2
:1040C000D2DFCE0161DFCE016CE271E03BDF8D2DEE
:1040D00080648EBD0DB407FEFDCF28E130E0D8012D
:1040E000C701022E04C0B695A795979587950A94A7
:1040F000D2F78EBD0DB407FEFDCF285030408FEFB4
:10410000283F380761F7DD2011F485E906C088E013
:10411000D81611F487E801C08FEF8EBD0DB407FEED
:10412000FDCF90E02FEF2EBD0DB407FEFDCF8EB575
:1041300087FF02C09150B9F78A87DF91CF911F9115
:104140000F91FF90EF90DF900895CF92DF92EF9262
:10415000FF920F931F93CF93DF93EC017A018B01B2
:104160006901411551056105710511F482E133C002
:104170008B85833039F029E0EE0CFF1C001F111FE6
:104180002A95D1F7CE0168E1A80197018EDF882337
:1041900011F084E020C0CE016EEFA601FFDE88237F
:1041A000D9F0CE0168E572E0CDDE882311F485E117
:1041B00012C0CE016DE020E030E040E050E075DF5D
:1041C000882341F48FEF8EBD0DB407FEFDCF8EB571
:1041D000882371F084E18D83CE01DBDE80E0DF9106
:1041E000CF911F910F91FF90EF90DF90CF900895A6
:1041F000CE01CFDE81E0F3CF8F929F92AF92BF923C
:10420000CF92DF92EF92FF920F931F93CF93DF93A2
:10421000EC015A016B0149010115110509F477C040
:10422000C801820F931F8150924008F06CC08E81AC
:10423000882371F088819981AA81BB814817590729
:104240006A077B0729F48F8198858816990608F5F7
:10425000A882B982CA82DB828B85833039F069E01B
:10426000AA0CBB1CCC1CDD1C6A95D1F7CE0161E108
:10427000A60195011ADF882319F083E08D8343C0DE
:10428000CE01C5DE882309F43EC018861F8281E076
:104290008E838FEF8EBD8F8198852FEF05C00DB473
:1042A00007FEFDCF2EBD019688159905C0F39887AE
:1042B0008F83D801119720E030E09FEF0BC00DB441
:1042C00007FEFDCF8EB5F701E20FF31F80839EBD81
:1042D0002F5F3F4F2A173B0790F30DB407FEFDCF2A
:1042E0008EB5AE0DBF1D8C932F813885200F311FE9
:1042F00038872F838985882319F02050324038F081
:10430000CE01B1DE04C0CE0144DE80E001C081E018
:10431000DF91CF911F910F91FF90EF90DF90CF90A1
:10432000BF90AF909F908F900895EF92FF920F9360
:104330001F93790120E030E000E012E05DDF1F9183
:104340000F91FF90EF900895BF92CF92DF92EF927E
:10435000FF920F931F93CF93DF93EC01B62E1B8632
:1043600019861E821D824C830E94C3336B018C818F
:1043700061E00E94C334CE010CDE82E360E00E9463
:10438000C33483E361E00E94C33484E361E00E94AC
:10439000C33485E361E00E94C33485E361E00E9499
:1043A000763583E58CBD8DB58E7F8DBD80E09FEF2A
:1043B0009EBD0DB407FEFDCF8F5F8A30C9F7CE01D9
:1043C000E3DD09C00E94C3336C197D09615D77404C
:1043D00010F081E059C0CE0160E020E030E040E024
:1043E00050E063DE182F8A87813061F7CE0168E0E4
:1043F0002AEA31E040E050E058DE82FF02C01B872D
:1044000011C080E02FEF2EBD0DB407FEFDCF9EB58D
:104410008F5F8430C1F79A879A3A11F082E034C0F6
:1044200082E08B878B85823021F0EE24FF24870188
:104430000FC0E12CF12C012DF0E41F2F09C00E94C8
:10444000C3336C197D09615D774010F088E01CC0B2
:10445000CE0167E320E030E040E050E026DECE0110
:1044600069E2A801970121DE8A87882341F78B85BD
:10447000823021F5CE016AE320E030E040E050E0F8
:1044800014DE882331F086E08D83CE0182DD80E06A
:104490001AC08FEF8EBD0DB407FEFDCF8EB5807CA8
:1044A000803C11F483E08B8780E09FEF9EBD0DB4CC
:1044B00007FEFDCF2EB58F5F8330C1F7CE0169DDDA
:1044C000CE016B2D1ADDDF91CF911F910F91FF90DF
:1044D000EF90DF90CF90BF900895CF93DF93EC01E2
:1044E000DB0180E090E020E2FD01E80FF91F20836E
:1044F00001968B309105C1F757E040E021C02E3284
:1045000019F086E092E007C05A3019F15AE048E00D
:1045100017C03217F1F0FC01019634913323C9F72B
:104520005417B8F02132A8F02F3798F4822F815613
:104530008A3108F42052FD01E40FF11D20834F5F02
:1045400029912223E1F690E08C91803219F091E0DC
:1045500001C090E0892FDF91CF9108956F927F92F3
:104560008F929F92AF92BF92CF92DF92EF92FF9283
:104570000F931F93CF93DF93EC017A018B012D8171
:10458000222309F480C08B899C89AD89BE89841758
:104590009507A607B70708F476C085C0E114F104B3
:1045A0000105110549F41E821F82188619861A8694
:1045B0001B861C861D8665C02A853B854C855D85CE
:1045C000EB8DFC8D858590E0099621503040404070
:1045D000504039014A01082E04C09694879477947C
:1045E00067940A94D2F72F5F3F4F4F4F5F4F089465
:1045F000E108F108010911095701680104C0D694C6
:10460000C794B794A7948A95D2F70894E11CF11C3B
:10461000011D111DA614B704C804D90428F02115E2
:1046200031054105510549F48F89988DA98DBA8DC1
:104630008E839F83A887B98716C0A618B708C808B5
:10464000D90811C04E815F81688579858B8D9C8DDD
:1046500094010E94A72C0894A108B108C108D108B0
:10466000882331F410C086E0882E912C8C0E9D1E7C
:10467000A114B104C104D10429F7EA86FB860C8792
:104680001D8781E001C080E0DF91CF911F910F91E4
:10469000FF90EF90DF90CF90BF90AF909F908F9062
:1046A0007F906F900895223009F078CFE6CFCF93B6
:1046B000DF93EC01462F6E857F85888999892FD7F6
:1046C000882319F420E030E00AC08A89282F30E0DE
:1046D00095E0220F331F9A95E1F7225A344FC90112
:1046E000DF91CF9108950F931F93CF93DF938C01A8
:1046F000FC0185818823C9F1848187FF34C0C8010A
:1047000061E0D5DFEC01009781F1F801858182300D
:1047100040F483899489A589B6898C8F9D8FAE8F4B
:10472000BF8FF8018789908D9B8F8A8F8789908DA5
:10473000A18DB28DCD01AA27BB279D8B8C8BE091DB
:104740005C0BF0915D0B309751F0BE016A5E7F4FBC
:10475000CE0148961995888D998D9B8B8A8BF8018F
:1047600084818F7784837DD601C080E0DF91CF91F3
:104770001F910F910895CF93DF93EC01B4DF88234D
:1047800011F01D8281E0DF91CF9108956F927F92A9
:104790008F929F92AF92BF92CF92DF92EF92FF9251
:1047A0000F931F93DF93CF9300D00F92CDB7DEB757
:1047B0007C015A016B01DC0115968C9115978130B3
:1047C00009F08BC014968C9181FF87C09AC0009726
:1047D000A105B10511F481E081C0F7016284738401
:1047E00084849584C701B601A501B8DE882309F445
:1047F00074C0D7015B968D919C915C97A114B10414
:10480000C104D10489F457964D915D916D917C91CD
:104810005A970E94192D882309F45FC0F701178A5F
:10482000108E118E128E3CC0D70116964D915D915F
:104830006D917C9119979E012F5F3F4F0E94A72C8D
:10484000882309F44AC0D7015B96ED91FC915C97EF
:1048500049815A816B817C818789803129F088EF79
:104860009FEFAFEFBFE004C088EF9FEFA0E0B0E0A4
:10487000481759076A077B0798F4CF010E94192D42
:10488000882359F1F7014681578160857185838DB1
:10489000948D0FEF1FEF2FEF3FE0BED78823E9F095
:1048A000D7015396AD92BD92CD92DC925697149655
:1048B0008C911497806814968C93C70114DF882319
:1048C00061F0B601A5016A147B048C049D0410F408
:1048D000B401A301C70142DE01C080E00F900F9038
:1048E0000F900F90CF91DF911F910F91FF90EF905C
:1048F000DF90CF90BF90AF909F908F907F906F9000
:104900000895F70183899489A589B6898417950745
:10491000A607B70708F05BCFE0CFCF93DF93EC019A
:1049200040E050E060E070E031DF882359F0CE01D4
:1049300061E0BDDEFC01009729F085EE80831D82D9
:1049400090D501C080E0DF91CF9108952F923F92E2
:104950004F925F926F927F928F929F92AF92BF928F
:10496000CF92DF92EF92FF920F931F93CF93DF933B
:10497000EC012A018D81882309F4C4C08C8180FF59
:10498000C1C0D6C025014E185F084B0176E0272E26
:10499000312C2C0E3D1E3201AFC02A853B854C8543
:1049A0005D856FEFA62E61E0B62EA222B3228D8127
:1049B00079018A0199E016950795F794E7949A95FD
:1049C000D1F7EB8DFC8D823049F4428D538D648D8F
:1049D000758D4E0D5F1D601F711F3EC0D480DA942F
:1049E000DE20A114B104D1F4DD20C1F4211531057C
:1049F0004105510549F48F89988DA98DBA8D8E8313
:104A00009F83A887B9870AC04E815F8168857985B1
:104A1000CF0191019CD7882309F474C0EB8DFC8DE4
:104A20004E815F816885798542505040604070407A
:104A3000058404C0440F551F661F771F0A94D2F7E0
:104A400086859785A089B189480F591F6A1F7B1FEA
:104A50004D0D511D611D711D80E092E08A199B0969
:104A600063018615970508F46C018C8186FD06C0EC
:104A700080E0C81682E0D80609F072C08091430831
:104A800090914408A0914508B091460848175907ED
:104A90006A077B0709F464C080915E0D90915F0DF9
:104AA000950186017401A8DB882361F18C0C9D1CA3
:104AB00012C09501225A344FA9014C0D5D1DD4013D
:104AC000F90102C081918D93E417F507D9F7E21B34
:104AD000F30B8E0E9F1E960140E050E08A859B8569
:104AE000AC85BD85820F931FA41FB51F8A879B8746
:104AF000AC87BD876C187D086114710409F04DCF37
:104B0000A20102C04FEF5FEFCA01DF91CF911F9169
:104B10000F91FF90EF90DF90CF90BF90AF909F905C
:104B20008F907F906F905F904F903F902F9008955F
:104B3000AB88BC88CD88DE88EA84FB840C851D8523
:104B40009A0140E050E0D601C5018E199F09A00BE3
:104B5000B10B82179307A407B50708F413CF15CF3D
:104B6000CB01BA0140E0DBD4882309F0A2CFCACF41
:104B7000CF92DF92EF92FF920F931F93DF93CF9329
:104B80000F92CDB7DEB76C01FC018581823068F0F1
:104B9000E284F38404851585C601BE016F5F7F4FF3
:104BA00041E050E0D3DE019769F020E030E0C90138
:104BB0000F90CF91DF911F910F91FF90EF90DF90B9
:104BC000CF900895F60182859385A485B5854F968B
:104BD000A11DB11D82879387A487B587F5E016953F
:104BE0000795F794E794FA95D1F78E2D8F70282FBB
:104BF00030E0E5E0220F331FEA95E1F7225A344F07
:104C0000D6CF0F931F93CF93DF93EC018B018D8150
:104C1000882309F040C0FB0187898031B1F482E02C
:104C20008D831F8A188E198E1A8E808D918DA0E02B
:104C3000B0E045E0880F991FAA1FBB1F4A95D1F726
:104C40008B8B9C8BAD8BBE8B14C0803221F583E0A7
:104C50008D83FB01428D538D648D758D4F8B588FE5
:104C6000698F7A8F9E012D5E3F4FC80139D7882307
:104C700091F01C8F0B8F81E08C831E821F8218861F
:104C800019861A861B861C861D861E861F86188A14
:104C9000198A1A8A01C080E0DF91CF911F910F918C
:104CA00008951F93CF93DF93EC01142FE62FF0E0CC
:104CB00075E0EE0FFF1F7A95E1F7E25AF44F838516
:104CC000817121F0842F827409F052C06A8B809127
:104CD000430890914408A0914508B09146088E87FA
:104CE0009F87A88BB98B84899589A0E0B0E0BC012F
:104CF00055274427828D938DA0E0B0E0482B592B97
:104D00006A2B7B2B4F8B588F698F7A8F838590E02E
:104D100088719070009751F4848D958DA68DB78D14
:104D20008B8B9C8BAD8BBE8B81E00BC0409701F5CC
:104D30009E012D5E3F4F8B8D9C8DD2D68823C1F076
:104D400084E08D83812F8F708C831E821F82188652
:104D500019861A861B861C861D8616FD02C081E0F8
:104D600008C0CE0140E050E060E070E00FDD01C01F
:104D700080E0DF91CF911F910895CF93DF93EC01F5
:104D80009C012A5F3F4F8B8D9C8D41E050E060E09D
:104D900070E014D78823A1F08F89988DA98DBA8DE2
:104DA0000097A105B10559F48E819F81A885B98529
:104DB0008F8B988FA98FBA8F8C8180688C8381E0CC
:104DC000DF91CF9108952F923F924F925F927F9201
:104DD0008F929F92AF92BF92CF92DF92EF92FF920B
:104DE0000F931F93DF93CF9300D000D0CDB7DEB7E2
:104DF0006C01162F072F5E834D83DC0115968C9175
:104E00001597813009F069C114968C9181FF65C1B5
:104E100087C1F6014389548965897689828593859E
:104E2000A485B58584179507A607B70729F0C6019D
:104E300095DB882309F451C1812F902F9C01290112
:104E40002D803E8012C1D6015B96ED91FC915C975E
:104E5000DA01C90119E0B695A795979587951A9536
:104E6000D1F774807A9478227FEF872E71E0972EA5
:104E700082229322772009F04CC08114910409F01A
:104E800048C0D60116964D915D916D917C91199710
:104E9000411551056105710581F457968D919D91DC
:104EA0000D90BC91A02D0097A105B10541F1F6012F
:104EB00086839783A087B1872CC0CF019E012F5F87
:104EC0003F4F45D5882309F40FC129813A814B8191
:104ED0005C81D6015B96ED91FC915C97878980316E
:104EE00029F088EF9FEFAFEFBFE004C088EF9FEF9E
:104EF000A0E0B0E0281739074A075B0728F0C60191
:104F00003CDF882331F4E9C0F601268337834087EC
:104F1000518780E092E08819990951018215930523
:104F200008F45C01D6015B96ED91FC915C971696B6
:104F3000ED90FD900D911C9119978EEF9FEFAFEFC3
:104F4000BFEFE80EF91E0A1F1B1F058404C0EE0CFC
:104F5000FF1C001F111F0A94D2F786859785A08930
:104F6000B189E80EF91E0A1F1B1FE70CF11C011D79
:104F7000111D90E0A91692E0B90649F58091430809
:104F800090914408A0914508B09146088E159F0560
:104F9000A007B10761F48FEF9FEFAFEFBFEF8093F2
:104FA000430890934408A0934508B0934608809125
:104FB0005E0D90915F0DB801A7019201C6D88823BC
:104FC00009F48BC0A0E0B2E04A0E5B1E3CC0811425
:104FD000910401F5F6012285338544855585838941
:104FE0009489A589B689281739074A075B0790F085
:104FF00038D2882309F471C0E0924308F092440843
:1050000000934508109346088091600D816080935D
:10501000600D07C0C801B70141E081D2882309F4BF
:105020005CC09401225A344FA9014A0D5B1DD20184
:10503000F90102C08D918193E417F507D9F7E21BBE
:10504000F30B4E0E5F1E2A183B08950140E050E01E
:10505000F60182859385A485B585820F931FA41FD1
:10506000B51F82879387A487B587D6011A962D919D
:105070003D914D915C911D972114310409F0E3CECF
:1050800053968D919D910D90BC91A02D8217930701
:10509000A407B50748F4F601238B348B458B568B58
:1050A00084818068848311C080915C0B90915D0B3A
:1050B000892B59F08D819E81892B39F0D601149668
:1050C0008C911497806814968C93F601848183FFE9
:1050D0000DC0C60108DB882349F481E090E0D601C9
:1050E00013969C938E9312971E821D828D819E81B2
:1050F00026960FB6F894DEBF0FBECDBFCF91DF91DD
:105100001F910F91FF90EF90DF90CF90BF90AF90E5
:105110009F908F907F905F904F903F902F90089539
:1051200082FD77CE89CEDF93CF930F92CDB7DEB7D6
:105130006983BE016F5F7F4F41E050E044DE0F9016
:10514000CF91DF910895DF92EF92FF920F931F931B
:10515000CF93DF93EC0111DE882309F44DC0EB8D72
:10516000FC8DEE80FF80088519858EEF9FEFAFEFF5
:10517000BFEFE80EF91E0A1F1B1F058404C0EE0CCA
:10518000FF1C001F111F0A94D2F786859785A089FE
:10519000B189E80EF91E0A1F1B1FD4800894E1088C
:1051A000F108010911090AC0C801B7016D0D711D8F
:1051B000811D911D91D18823F9F0DA94DD20A1F7AA
:1051C000EB8DFC8D20E032E040E050E0058404C02F
:1051D000220F331F441F551F0A94D2F78B899C89D5
:1051E000AD89BE89820F931FA41FB51F8B8B9C8B2B
:1051F000AD8BBE8B81E001C080E0DF91CF911F912C
:105200000F91FF90EF90DF9008956F927F928F92B1
:105210009F92AF92BF92CF92DF92EF92FF920F9345
:105220001F93DF93CF93CDB7DEB72B970FB6F894CC
:10523000DEBF0FBECDBF5C016B01822EDC01159677
:105240008C91882309F0CCC0CA018E010F5F1F4FDB
:10525000B80143D9882309F4C3C0F601838D948D26
:10526000D5015C969C938E935B971682178210866D
:105270001186D6011A961D921D921D921C921D97A1
:105280009924380140C0C60173DCFC01009709F481
:10529000A7C085E016950795F794E7948A95D1F70E
:1052A0001E2D1F708081882311F0853ED1F4992036
:1052B00091F4D50152961C93529720914308309156
:1052C000440840914508509146081E962D933D9301
:1052D0004D935C9351978081882399F499249394FA
:1052E00021C0C301BF014BE050E00E946A04009757
:1052F00051F4882D8073803309F472C0C501612F89
:105300006CC099249394F601E284F3840485158596
:1053100083899489A589B689E816F9060A071B07C7
:1053200008F4B1CF882D8271823109F059C09920DB
:1053300039F0C50161E0BBD98C01009781F450C000
:10534000D60115968C91823009F44AC0C601FBDE65
:10535000882309F445C0F501128A0EE51BE080E2BE
:10536000D8011D928A95E9F7D801FE0131968BE0AC
:1053700001900D928150E1F7E0915C0BF0915D0B93
:10538000309739F0B801625F7F4FC8014096199598
:1053900009C081E298E2F801918B808B80E098E06F
:1053A00097878687D80150968D919C9151975396F7
:1053B0009C938E93529759969C938E9358971E96D2
:1053C0008D919C911F9757969C938E93569749D099
:1053D000882331F0C501F5016289482D62DC01C0E6
:1053E00080E02B960FB6F894DEBF0FBECDBFCF91F5
:1053F000DF911F910F91FF90EF90DF90CF90BF90C2
:10540000AF909F908F907F906F9008950F931F9310
:10541000DF93CF93CDB7DEB76D970FB6F894DEBFAD
:105420000FBECDBF9C01AB011C821B8283E698E0BE
:105430009A8389831E828E010F5F1F4FC801B901B5
:1054400022E0E3DE882311F0C80167DA6D960FB61B
:10545000F894DEBF0FBECDBFCF91DF911F910F91AA
:1054600008958091600D882399F1409143085091EF
:105470004408609145087091460880915E0D9091B6
:105480005F0D2EE53BE00E94A520882319F1409195
:10549000610D5091620D6091630D7091640D411525
:1054A00051056105710591F080915E0D90915F0D40
:1054B0002EE53BE00E94A520882361F01092610D4B
:1054C0001092620D1092630D1092640D1092600D97
:1054D00081E0089580E00895EF92FF920F931F936B
:1054E0007B018C01BEDF8823A9F0EEE5FBE0119281
:1054F0008DE0EE35F807D9F7E0924308F0924408C2
:1055000000934508109346088091600D8160809358
:10551000600D81E01F910F91FF90EF900895DF9251
:10552000EF92FF920F931F937B018C01D42E8091F9
:10553000430890914408A0914508B09146088E1503
:105540009F05A007B107B9F08CDF8823D9F08091BF
:105550005E0D90915F0DB801A7012EE53BE00E9422
:105560009521882379F0E0924308F0924408009353
:105570004508109346088091600D8D298093600D39
:1055800081E001C080E01F910F91FF90EF90DF90CC
:1055900008958F929F92AF92BF92CF92DF92EF9237
:1055A000FF920F931F93CF93DF936C01142F70938F
:1055B0005F0D60935E0D442321F4882499245401E7
:1055C0003FC0453008F01AC160E070E080E090E034
:1055D00040E0A5DF882309F411C1C12FD0E0219755
:1055E000FE0174E0EE0FFF1F7A95E1F7E25AF44FE7
:1055F000E254FE4F8081EE5BF14090E08F77907037
:10560000892B09F0FBC0E653FE4F80819181A28176
:10561000B38184369105A105B10508F4EFC064E0BB
:10562000CC0FDD1F6A95E1F7CC5DD24F8880998061
:10563000AA80BB8081149104A104B10409F4DEC0E6
:10564000C501B40140E06BDF882309F4D7C0809125
:10565000690B90916A0B8050924009F0CFC0209165
:105660006E0B222309F4CAC080916C0B90916D0BD4
:10567000892B09F4C3C080916B0B882309F4BEC049
:10568000F601228B80916B0B8483158661E070E0BC
:1056900007C04F5FF60145874150483008F0AEC063
:1056A000F6014585848190E09B01042E02C0220F03
:1056B000331F0A94E2F78217930759F72091740B6E
:1056C0003091750B2115310519F040E050E008C00C
:1056D0002091820B3091830B4091840B5091850B6C
:1056E000F6012583368347835087E0906C0BF0905A
:1056F0006D0B00E010E0E80CF91C0A1D1B1DE38A8D
:10570000F48A058B168B80916F0B9091700B918FA3
:10571000808F60916E0B70E080E090E00E94084105
:105720006E0D7F1D801F911FF601628F738F848F16
:10573000958F20916F0B3091700B55E0220F331F26
:105740005A95E1F721503E4F232F3327269540E00D
:1057500050E0260F371F481F591F26873787408B79
:10576000518B8091710B9091720B009719F0A0E012
:10577000B0E008C080917E0B90917F0BA091800BD0
:10578000B091810B85017401E21AF30A040B150B29
:10579000A8019701280F391F4A1F5B1FF6010584D6
:1057A00004C056954795379527950A94D2F72187D7
:1057B000328743875487253FFFE03F07F0E04F07DC
:1057C000F0E05F0710F48CE006C0255F3F4F4040DB
:1057D000504028F480E1F601878B81E010C0809171
:1057E0008A0B90918B0BA0918C0BB0918D0BF601D5
:1057F000828F938FA48FB58F80E2EECF80E0DF9110
:10580000CF911F910F91FF90EF90DF90CF90BF90BD
:10581000AF909F908F9008954F925F926F927F927A
:105820008F929F92AF92BF92CF92DF92EF92FF92B0
:105830000F931F93CF93DF93EC016A017B01280143
:105840003901423051056105710508F46EC0898542
:105850009A85AB85BC850196A11DB11D841795075E
:10586000A607B70708F461C02B893C894D895E897A
:105870008F89803129F499278F2D7E2D6D2D09C0B8
:10588000C701B60117E096958795779567951A95A4
:10589000D1F74B015C01820E931EA41EB51E8091B0
:1058A000430890914408A0914508B0914608881695
:1058B0009906AA06BB0631F0C501B40140E02FDE0F
:1058C000882399F18F89803149F4F601F070EE0F49
:1058D000FF1FE25AF44F518240820DC0F601EF776C
:1058E000F070EE0FFF1FEE0FFF1FE25AF44F4082E1
:1058F0005182628273828091600D81608093600D1D
:105900008A89823080F08D819E81AF81B885880E32
:10591000991EAA1EBB1E8092610D9092620DA092EC
:10592000630DB092640D81E001C080E0DF91CF9102
:105930001F910F91FF90EF90DF90CF90BF90AF90AD
:105940009F908F907F906F905F904F900895CF922F
:10595000DF92EF92FF920F931F93CF93DF93EC01AF
:105960007A018B01690189859A85AB85BC85019691
:10597000A11DB11D84179507A607B70708F44FC0EE
:105980002B893C894D895E898F89803129F499273B
:10599000812F702F6F2D09C0C801B701E7E09695E0
:1059A000879577956795EA95D1F7260F371F481F9A
:1059B000591F8091430890914408A0914508B091E7
:1059C0004608281739074A075B0731F0CA01B901B1
:1059D00040E0A5DD882319F18F89803159F4F70162
:1059E000F070EE0FFF1FE25AF44F80819181A0E02A
:1059F000B0E00EC0F701EF77F070EE0FFF1FEE0F73
:105A0000FF1FE25AF44F80819181A281B381BF7060
:105A1000F60180839183A283B38381E001C080E09B
:105A2000DF91CF911F910F91FF90EF90DF90CF907A
:105A30000895AF92BF92CF92DF92EF92FF920F93B1
:105A40001F93DF93CF9300D00F92CDB7DEB76C01D9
:105A50007A018B0182E090E0A0E0B0E0F601808363
:105A60009183A283B3835E010894A11CB11CC6017B
:105A7000B801A70195016BDF882311F1C601B801B8
:105A8000A70100E010E020E030E0C6DE8823C1F08E
:105A9000E980FA800B811C81F6018789803129F029
:105AA00088EF9FEFAFEFBFE004C088EF9FEFA0E06B
:105AB000B0E0E816F9060A071B07C8F281E001C04A
:105AC00080E00F900F900F900F90CF91DF911F917A
:105AD0000F91FF90EF90DF90CF90BF90AF9008951F
